:100000000C942A001895000018950000189500001F
:10001000189500001895000018950000189500002C
:10002000189500001895000018950000189500001C
:10003000189500001895000018950000189500000C
:1000400018950000189500001895000018950000FC
:10005000189500008FE58DBFC8E3E0E24E2E84E0E6
:100060008EBFD4E0F4E05F2EA89584B7082E877F7A
:1000700084BF88E1992781BD91BDEEEFF3E0A0E652
:10008000B0E088278D933197E9F766248FEF81BB25
:10009000B998BB9870E072BBE0E0F0E0A0E6B0E099
:1000A0000E94BA00B19B0C946700009160000F3F62
:1000B00010F00C946700A0E6B0E08C918F5F8C93F9
:1000C000E0E0F0E0A0E6B0E07BE70E94A900B39B8F
:1000D0000C947F0000916000003018F011F00C9437
:1000E00073000C947F0080916000815080936000C9
:1000F000E0E0F0E0A0E6B0E07BE70E94A900A0E627
:10010000B0E08C9182BB84E690E00E9494000C9455
:100110005200F894FFCF3197F1F70895689462F890
:100120000895E89462F80895EF93FF93EE27E82B83
:10013000E92B31F0EAEFF0E03197F1F70197D1F7D1
:10014000FF91EF910895E199FECFEEBBFFBB319691
:10015000089591E001C092E07B3751F47FB7F894A5
:10016000F2DF8D918DBBE29AE19A9A95C9F77FBF34
:100170007727089591E001C092E0E5DFE09A8DB322
:080180008D939A95D1F70895C3
:00000001FF
